{
  "contractName": "CertificateRegistry",
  "abi": [
    {
      "inputs": [],
      "stateMutability": "nonpayable",
      "type": "constructor"
    },
    {
      "anonymous": false,
      "inputs": [
        {
          "indexed": true,
          "internalType": "bytes32",
          "name": "certificateHash",
          "type": "bytes32"
        },
        {
          "indexed": true,
          "internalType": "address",
          "name": "issuer",
          "type": "address"
        },
        {
          "indexed": false,
          "internalType": "string",
          "name": "studentId",
          "type": "string"
        }
      ],
      "name": "CertificateIssued",
      "type": "event"
    },
    {
      "inputs": [
        {
          "internalType": "bytes32",
          "name": "",
          "type": "bytes32"
        }
      ],
      "name": "certificates",
      "outputs": [
        {
          "internalType": "address",
          "name": "issuer",
          "type": "address"
        },
        {
          "internalType": "uint256",
          "name": "timestamp",
          "type": "uint256"
        },
        {
          "internalType": "bool",
          "name": "isValid",
          "type": "bool"
        },
        {
          "internalType": "string",
          "name": "studentId",
          "type": "string"
        }
      ],
      "stateMutability": "view",
      "type": "function",
      "constant": true
    },
    {
      "inputs": [],
      "name": "owner",
      "outputs": [
        {
          "internalType": "address",
          "name": "",
          "type": "address"
        }
      ],
      "stateMutability": "view",
      "type": "function",
      "constant": true
    },
    {
      "inputs": [
        {
          "internalType": "bytes32",
          "name": "_certificateHash",
          "type": "bytes32"
        },
        {
          "internalType": "string",
          "name": "_studentId",
          "type": "string"
        }
      ],
      "name": "issueCertificate",
      "outputs": [],
      "stateMutability": "nonpayable",
      "type": "function"
    },
    {
      "inputs": [
        {
          "internalType": "bytes32",
          "name": "_certificateHash",
          "type": "bytes32"
        }
      ],
      "name": "verifyCertificate",
      "outputs": [
        {
          "internalType": "bool",
          "name": "",
          "type": "bool"
        }
      ],
      "stateMutability": "view",
      "type": "function",
      "constant": true
    },
    {
      "inputs": [
        {
          "internalType": "bytes32",
          "name": "_certificateHash",
          "type": "bytes32"
        }
      ],
      "name": "getCertificateDetails",
      "outputs": [
        {
          "internalType": "address",
          "name": "issuer",
          "type": "address"
        },
        {
          "internalType": "uint256",
          "name": "timestamp",
          "type": "uint256"
        },
        {
          "internalType": "bool",
          "name": "isValid",
          "type": "bool"
        },
        {
          "internalType": "string",
          "name": "studentId",
          "type": "string"
        }
      ],
      "stateMutability": "view",
      "type": "function",
      "constant": true
    }
  ],
  "bytecode": "0x608060405234801561001057600080fd5b50600180546001600160a01b03191633179055610707806100326000396000f3fe608060405234801561001057600080fd5b50600436106100575760003560e01c8063742f06881461005c578063850c1768146100885780638da5cb5b146100a8578063ac15f0ac146100bd578063baf75ec7146100d0575b600080fd5b61006f61006a366004610478565b6100e5565b60405161007f949392919061059c565b60405180910390f35b61009b610096366004610478565b6101a6565b60405161007f91906105d5565b6100b06101c3565b60405161007f9190610588565b61006f6100cb366004610478565b6101d2565b6100e36100de366004610490565b6102ab565b005b60006020819052908152604090208054600182015460028301546003840180546001600160a01b0390941694929360ff909216929161012390610680565b80601f016020809104026020016040519081016040528092919081815260200182805461014f90610680565b801561019c5780601f106101715761010080835404028352916020019161019c565b820191906000526020600020905b81548152906001019060200180831161017f57829003601f168201915b5050505050905084565b6000908152602081905260409020546001600160a01b0316151590565b6001546001600160a01b031681565b60008181526020819052604081208054600182015460028301546003840180548695869560609591946001600160a01b0390911693919260ff9091169190819061021b90610680565b80601f016020809104026020016040519081016040528092919081815260200182805461024790610680565b80156102945780601f1061026957610100808354040283529160200191610294565b820191906000526020600020905b81548152906001019060200180831161027757829003601f168201915b505050505090509450945094509450509193509193565b6001546001600160a01b031633146102de5760405162461bcd60e51b81526004016102d590610631565b60405180910390fd5b6000828152602081905260409020546001600160a01b0316156103135760405162461bcd60e51b81526004016102d5906105fa565b60408051608081018252338152426020808301918252600183850181815260608501878152600089815280855296909620855181546001600160a01b0319166001600160a01b039091161781559351918401919091555160028301805460ff1916911515919091179055925180519293919261039592600385019201906103df565b50905050336001600160a01b0316827fe9d1f149bd22b0e56019e79155fb9c09094cc06be78083f19551fea6e46ff6c4836040516103d391906105e0565b60405180910390a35050565b8280546103eb90610680565b90600052602060002090601f01602090048101928261040d5760008555610453565b82601f1061042657805160ff1916838001178555610453565b82800160010185558215610453579182015b82811115610453578251825591602001919060010190610438565b5061045f929150610463565b5090565b5b8082111561045f5760008155600101610464565b600060208284031215610489578081fd5b5035919050565b600080604083850312156104a2578081fd5b8235915060208084013567ffffffffffffffff808211156104c1578384fd5b818601915086601f8301126104d4578384fd5b8135818111156104e6576104e66106bb565b604051601f8201601f1916810185018381118282101715610509576105096106bb565b604052818152838201850189101561051f578586fd5b81858501868301378585838301015280955050505050509250929050565b60008151808452815b8181101561056257602081850181015186830182015201610546565b818111156105735782602083870101525b50601f01601f19169290920160200192915050565b6001600160a01b0391909116815260200190565b600060018060a01b03861682528460208301528315156040830152608060608301526105cb608083018461053d565b9695505050505050565b901515815260200190565b6000602082526105f3602083018461053d565b9392505050565b6020808252601b908201527f436572746966696361746520616c7265616479206578697374732e0000000000604082015260600190565b6020808252602f908201527f4f6e6c792074686520636f6e7472616374206f776e65722063616e2063616c6c60408201526e103a3434b990333ab731ba34b7b71760891b606082015260800190565b60028104600182168061069457607f821691505b602082108114156106b557634e487b7160e01b600052602260045260246000fd5b50919050565b634e487b7160e01b600052604160045260246000fdfea2646970667358221220353e795e2aeb034acd66d329e3c2997288ad687bf4a31b69257a468006a98b8464736f6c63430008000033",
  "immutableReferences": {},
  "source": "// SPDX-License-Identifier: MIT\npragma solidity ^0.8.0;\n\n/**\n * @title CertificateRegistry\n * @dev Manages the secure registration and verification of student certificate hashes on the blockchain.\n */\ncontract CertificateRegistry {\n    // Structure to hold certificate data on the blockchain\n    struct Certificate {\n        address issuer;          // The address that issued the certificate (Admin)\n        uint256 timestamp;       // The time of issuance\n        bool isValid;            // Always true if registered\n        string studentId;        // Off-chain reference to the student's unique ID\n    }\n\n    // Mapping: Certificate Hash (bytes32) => Certificate Details (struct)\n    mapping(bytes32 => Certificate) public certificates;\n\n    // Event to log when a certificate is successfully issued\n    event CertificateIssued(bytes32 indexed certificateHash, address indexed issuer, string studentId);\n\n    // Only the contract owner (the Admin account that deployed the contract) can issue certificates\n    address public owner;\n\n    constructor() {\n        owner = msg.sender;\n    }\n\n    // Modifier to restrict access to the contract owner\n    modifier onlyOwner() {\n        require(msg.sender == owner, \"Only the contract owner can call this function.\");\n        _;\n    }\n\n    /**\n     * @dev Issues a new certificate by storing its hash and student ID on the blockchain.\n     * The hash must be generated off-chain from the content of the PDF certificate.\n     * @param _certificateHash The SHA-256 hash of the certificate PDF (prefixed with 0x).\n     * @param _studentId The unique identifier of the student.\n     */\n    function issueCertificate(bytes32 _certificateHash, string memory _studentId) public onlyOwner {\n        // Ensure this hash has not been issued before\n        require(certificates[_certificateHash].issuer == address(0), \"Certificate already exists.\");\n\n        certificates[_certificateHash] = Certificate({\n            issuer: msg.sender,\n            timestamp: block.timestamp,\n            isValid: true,\n            studentId: _studentId\n        });\n\n        emit CertificateIssued(_certificateHash, msg.sender, _studentId);\n    }\n\n    /**\n     * @dev Checks if a certificate hash is registered (i.e., valid) by checking the issuer address.\n     * @param _certificateHash The SHA-256 hash to check.\n     * @return A boolean indicating validity.\n     */\n    function verifyCertificate(bytes32 _certificateHash) public view returns (bool) {\n        // If the issuer address is not the zero address, the certificate is registered and valid.\n        return certificates[_certificateHash].issuer != address(0);\n    }\n\n    /**\n     * @dev Retrieves all stored details for a specific certificate hash.\n     * @param _certificateHash The SHA-256 hash of the certificate.\n     * @return issuer The address that issued the certificate.\n     * @return timestamp The issuance timestamp.\n     * @return isValid The current validity status (always true if registered).\n     * @return studentId The off-chain ID of the student.\n     */\n    function getCertificateDetails(bytes32 _certificateHash) public view returns (\n        address issuer,\n        uint256 timestamp,\n        bool isValid,\n        string memory studentId\n    ) {\n        Certificate storage cert = certificates[_certificateHash];\n        return (cert.issuer, cert.timestamp, cert.isValid, cert.studentId);\n    }\n}",
  "sourcePath": "C:\\Users\\hp\\Desktop\\Code\\contracts\\CertificateRegistry.sol",
  "compiler": {
    "name": "solc",
    "version": "0.8.0+commit.c7dfd78e.Emscripten.clang"
  },
  "schemaVersion": "3.4.16",
  "updatedAt": "2025-11-22T14:07:08.410Z",
  "networkType": "ethereum",
  "devdoc": {
    "details": "Manages the secure registration and verification of student certificate hashes on the blockchain.",
    "kind": "dev",
    "methods": {
      "getCertificateDetails(bytes32)": {
        "details": "Retrieves all stored details for a specific certificate hash.",
        "params": {
          "_certificateHash": "The SHA-256 hash of the certificate."
        },
        "returns": {
          "isValid": "The current validity status (always true if registered).",
          "issuer": "The address that issued the certificate.",
          "studentId": "The off-chain ID of the student.",
          "timestamp": "The issuance timestamp."
        }
      },
      "issueCertificate(bytes32,string)": {
        "details": "Issues a new certificate by storing its hash and student ID on the blockchain. The hash must be generated off-chain from the content of the PDF certificate.",
        "params": {
          "_certificateHash": "The SHA-256 hash of the certificate PDF (prefixed with 0x).",
          "_studentId": "The unique identifier of the student."
        }
      },
      "verifyCertificate(bytes32)": {
        "details": "Checks if a certificate hash is registered (i.e., valid) by checking the issuer address.",
        "params": {
          "_certificateHash": "The SHA-256 hash to check."
        },
        "returns": {
          "_0": "A boolean indicating validity."
        }
      }
    },
    "title": "CertificateRegistry",
    "version": 1
  },
  "userdoc": {
    "kind": "user",
    "methods": {},
    "version": 1
  }
}